{
  "_format": "hh-sol-artifact-1",
  "contractName": "KoloContract",
  "sourceName": "contracts/Kolo.sol",
  "abi": [
    {
      "anonymous": false,
      "inputs": [
        {
          "indexed": false,
          "internalType": "uint256",
          "name": "_koloId",
          "type": "uint256"
        },
        {
          "indexed": false,
          "internalType": "uint256",
          "name": "PreviousBalance",
          "type": "uint256"
        },
        {
          "indexed": false,
          "internalType": "uint256",
          "name": "CurrentBalance",
          "type": "uint256"
        }
      ],
      "name": "Deposit",
      "type": "event"
    },
    {
      "anonymous": false,
      "inputs": [
        {
          "indexed": false,
          "internalType": "uint256",
          "name": "_koloId",
          "type": "uint256"
        },
        {
          "indexed": false,
          "internalType": "address",
          "name": "_koloOwner",
          "type": "address"
        },
        {
          "indexed": false,
          "internalType": "uint256",
          "name": "_duration",
          "type": "uint256"
        }
      ],
      "name": "KoloCreated",
      "type": "event"
    },
    {
      "inputs": [
        {
          "internalType": "uint256",
          "name": "_koloDuration",
          "type": "uint256"
        }
      ],
      "name": "createKolo",
      "outputs": [
        {
          "internalType": "uint256",
          "name": "",
          "type": "uint256"
        }
      ],
      "stateMutability": "payable",
      "type": "function"
    },
    {
      "inputs": [
        {
          "internalType": "uint256",
          "name": "_koloId",
          "type": "uint256"
        }
      ],
      "name": "depositToKolo",
      "outputs": [],
      "stateMutability": "payable",
      "type": "function"
    },
    {
      "inputs": [],
      "name": "koloId",
      "outputs": [
        {
          "internalType": "uint256",
          "name": "",
          "type": "uint256"
        }
      ],
      "stateMutability": "view",
      "type": "function"
    },
    {
      "inputs": [
        {
          "internalType": "uint256",
          "name": "_koloId",
          "type": "uint256"
        }
      ],
      "name": "viewKolo",
      "outputs": [
        {
          "components": [
            {
              "internalType": "address payable",
              "name": "koloOwner",
              "type": "address"
            },
            {
              "internalType": "uint256",
              "name": "koloStartDate",
              "type": "uint256"
            },
            {
              "internalType": "uint256",
              "name": "koloDuration",
              "type": "uint256"
            },
            {
              "internalType": "uint256",
              "name": "koloAmount",
              "type": "uint256"
            },
            {
              "internalType": "bool",
              "name": "status",
              "type": "bool"
            }
          ],
          "internalType": "struct KoloContract.Kolo",
          "name": "",
          "type": "tuple"
        }
      ],
      "stateMutability": "view",
      "type": "function"
    },
    {
      "inputs": [
        {
          "internalType": "uint256",
          "name": "_koloId",
          "type": "uint256"
        }
      ],
      "name": "withdraw",
      "outputs": [
        {
          "internalType": "bool",
          "name": "",
          "type": "bool"
        }
      ],
      "stateMutability": "payable",
      "type": "function"
    }
  ],
  "bytecode": "0x6080604052600160005534801561001557600080fd5b50610cb0806100256000396000f3fe60806040526004361061004a5760003560e01c806328b65e041461004f5780632df335f91461008c5780632e1a7d4d146100a857806371729643146100d8578063a1498ea614610103575b600080fd5b34801561005b57600080fd5b5061007660048036038101906100719190610718565b610133565b604051610083919061096d565b60405180910390f35b6100a660048036038101906100a19190610718565b6101f5565b005b6100c260048036038101906100bd9190610718565b61032f565b6040516100cf91906108b2565b60405180910390f35b3480156100e457600080fd5b506100ed6105b3565b6040516100fa9190610988565b60405180910390f35b61011d60048036038101906101189190610718565b6105b9565b60405161012a9190610988565b60405180910390f35b61013b6106bc565b6000600160008481526020019081526020016000206040518060a00160405290816000820160009054906101000a900473ffffffffffffffffffffffffffffffffffffffff1673ffffffffffffffffffffffffffffffffffffffff1673ffffffffffffffffffffffffffffffffffffffff1681526020016001820154815260200160028201548152602001600382015481526020016004820160009054906101000a900460ff161515151581525050905080915050919050565b8060005411610239576040517f08c379a00000000000000000000000000000000000000000000000000000000081526004016102309061092d565b60405180910390fd5b600115156001600083815260200190815260200160002060040160009054906101000a900460ff161515146102a3576040517f08c379a000000000000000000000000000000000000000000000000000000000815260040161029a906108cd565b60405180910390fd5b6000349050600060016000848152602001908152602001600020600301549050600082826102d19190610a22565b90508060016000868152602001908152602001600020600301819055507f33da4f9b82b3e18a281ca2cabbe2f076925692abb593b7ea3f850009e8ec9770848383604051610321939291906109da565b60405180910390a150505050565b60008160005411610375576040517f08c379a000000000000000000000000000000000000000000000000000000000815260040161036c9061092d565b60405180910390fd5b600115156001600084815260200190815260200160002060040160009054906101000a900460ff161515146103df576040517f08c379a00000000000000000000000000000000000000000000000000000000081526004016103d69061090d565b60405180910390fd5b6001600083815260200190815260200160002060020154421015610438576040517f08c379a000000000000000000000000000000000000000000000000000000000815260040161042f906108ed565b60405180910390fd5b6001600083815260200190815260200160002060000160009054906101000a900473ffffffffffffffffffffffffffffffffffffffff1673ffffffffffffffffffffffffffffffffffffffff163373ffffffffffffffffffffffffffffffffffffffff16146104dc576040517f08c379a00000000000000000000000000000000000000000000000000000000081526004016104d39061094d565b60405180910390fd5b60006001600084815260200190815260200160002060030154905060006001600085815260200190815260200160002060000160009054906101000a900473ffffffffffffffffffffffffffffffffffffffff1690508073ffffffffffffffffffffffffffffffffffffffff166108fc839081150290604051600060405180830381858888f19350505050158015610578573d6000803e3d6000fd5b5060006001600086815260200190815260200160002060040160006101000a81548160ff021916908315150217905550600192505050919050565b60005481565b600080600054905060006001600083815260200190815260200160002090504281600101819055508381600201819055506105f26106b4565b8160000160006101000a81548173ffffffffffffffffffffffffffffffffffffffff021916908373ffffffffffffffffffffffffffffffffffffffff16021790555060018160040160006101000a81548160ff02191690831515021790555060008081548092919061066390610ad2565b91905055507f3c41bf1c5db7f34ca6a5acd5389f67d47556d8d16cdcdfa0ef0202798155278e826106926106b4565b866040516106a2939291906109a3565b60405180910390a18192505050919050565b600033905090565b6040518060a00160405280600073ffffffffffffffffffffffffffffffffffffffff1681526020016000815260200160008152602001600081526020016000151581525090565b60008135905061071281610c63565b92915050565b60006020828403121561072a57600080fd5b600061073884828501610703565b91505092915050565b61074a81610a8a565b82525050565b61075981610a78565b82525050565b61076881610a9c565b82525050565b61077781610a9c565b82525050565b600061078a601f83610a11565b915061079582610b4a565b602082019050919050565b60006107ad602883610a11565b91506107b882610b73565b604082019050919050565b60006107d0600e83610a11565b91506107db82610bc2565b602082019050919050565b60006107f3601183610a11565b91506107fe82610beb565b602082019050919050565b6000610816602983610a11565b915061082182610c14565b604082019050919050565b60a0820160008201516108426000850182610741565b5060208201516108556020850182610894565b5060408201516108686040850182610894565b50606082015161087b6060850182610894565b50608082015161088e608085018261075f565b50505050565b61089d81610ac8565b82525050565b6108ac81610ac8565b82525050565b60006020820190506108c7600083018461076e565b92915050565b600060208201905081810360008301526108e68161077d565b9050919050565b60006020820190508181036000830152610906816107a0565b9050919050565b60006020820190508181036000830152610926816107c3565b9050919050565b60006020820190508181036000830152610946816107e6565b9050919050565b6000602082019050818103600083015261096681610809565b9050919050565b600060a082019050610982600083018461082c565b92915050565b600060208201905061099d60008301846108a3565b92915050565b60006060820190506109b860008301866108a3565b6109c56020830185610750565b6109d260408301846108a3565b949350505050565b60006060820190506109ef60008301866108a3565b6109fc60208301856108a3565b610a0960408301846108a3565b949350505050565b600082825260208201905092915050565b6000610a2d82610ac8565b9150610a3883610ac8565b9250827fffffffffffffffffffffffffffffffffffffffffffffffffffffffffffffffff03821115610a6d57610a6c610b1b565b5b828201905092915050565b6000610a8382610aa8565b9050919050565b6000610a9582610aa8565b9050919050565b60008115159050919050565b600073ffffffffffffffffffffffffffffffffffffffff82169050919050565b6000819050919050565b6000610add82610ac8565b91507fffffffffffffffffffffffffffffffffffffffffffffffffffffffffffffffff821415610b1057610b0f610b1b565b5b600182019050919050565b7f4e487b7100000000000000000000000000000000000000000000000000000000600052601160045260246000fd5b7f63616e6e6f74206465706f73697420746f206120636c6f736564206b6f6c6f00600082015250565b7f63616e6e6f7420776974686472617720756e74696c206166746572206b6f6c6f60008201527f2065787069726573000000000000000000000000000000000000000000000000602082015250565b7f4b6f6c6f20697320636c6f736564000000000000000000000000000000000000600082015250565b7f6b6f6c6f4964206d757374206578697374000000000000000000000000000000600082015250565b7f6f6e6c79206f776e6572206f66206b6f6c6f2063616e2063616c6c207468697360008201527f2066756e6374696f6e0000000000000000000000000000000000000000000000602082015250565b610c6c81610ac8565b8114610c7757600080fd5b5056fea2646970667358221220c91b8a22d30972d3e697cb1acf4b7ab4e1101d973be7734bd9fd85de97fcdb1264736f6c63430008040033",
  "linkReferences": {},
  "deployedLinkReferences": {}
}