{
  "_format": "hh-sol-artifact-1",
  "contractName": "KoloContract",
  "sourceName": "contracts/Kolo.sol",
  "abi": [
    {
      "anonymous": false,
      "inputs": [
        {
          "indexed": false,
          "internalType": "uint256",
          "name": "_koloId",
          "type": "uint256"
        },
        {
          "indexed": false,
          "internalType": "uint256",
          "name": "PreviousBalance",
          "type": "uint256"
        },
        {
          "indexed": false,
          "internalType": "uint256",
          "name": "CurrentBalance",
          "type": "uint256"
        }
      ],
      "name": "Deposit",
      "type": "event"
    },
    {
      "anonymous": false,
      "inputs": [
        {
          "indexed": false,
          "internalType": "uint256",
          "name": "_koloId",
          "type": "uint256"
        },
        {
          "indexed": false,
          "internalType": "address",
          "name": "_koloOwner",
          "type": "address"
        },
        {
          "indexed": false,
          "internalType": "uint256",
          "name": "_duration",
          "type": "uint256"
        }
      ],
      "name": "KoloCreated",
      "type": "event"
    },
    {
      "inputs": [
        {
          "internalType": "uint256",
          "name": "_koloDuration",
          "type": "uint256"
        }
      ],
      "name": "createKolo",
      "outputs": [
        {
          "internalType": "uint256",
          "name": "",
          "type": "uint256"
        }
      ],
      "stateMutability": "payable",
      "type": "function"
    },
    {
      "inputs": [
        {
          "internalType": "uint256",
          "name": "_koloId",
          "type": "uint256"
        }
      ],
      "name": "depositToKolo",
      "outputs": [
        {
          "internalType": "bool",
          "name": "",
          "type": "bool"
        }
      ],
      "stateMutability": "payable",
      "type": "function"
    },
    {
      "inputs": [],
      "name": "koloId",
      "outputs": [
        {
          "internalType": "uint256",
          "name": "",
          "type": "uint256"
        }
      ],
      "stateMutability": "view",
      "type": "function"
    },
    {
      "inputs": [
        {
          "internalType": "uint256",
          "name": "_koloId",
          "type": "uint256"
        }
      ],
      "name": "viewKolo",
      "outputs": [
        {
          "components": [
            {
              "internalType": "address payable",
              "name": "koloOwner",
              "type": "address"
            },
            {
              "internalType": "uint256",
              "name": "koloStartDate",
              "type": "uint256"
            },
            {
              "internalType": "uint256",
              "name": "koloDuration",
              "type": "uint256"
            },
            {
              "internalType": "uint256",
              "name": "koloAmount",
              "type": "uint256"
            },
            {
              "internalType": "bool",
              "name": "status",
              "type": "bool"
            }
          ],
          "internalType": "struct KoloContract.Kolo",
          "name": "",
          "type": "tuple"
        }
      ],
      "stateMutability": "view",
      "type": "function"
    },
    {
      "inputs": [
        {
          "internalType": "uint256",
          "name": "_koloId",
          "type": "uint256"
        }
      ],
      "name": "withdraw",
      "outputs": [
        {
          "internalType": "bool",
          "name": "",
          "type": "bool"
        }
      ],
      "stateMutability": "payable",
      "type": "function"
    }
  ],
  "bytecode": "0x60806040526001805534801561001457600080fd5b506001600081905550610e3c8061002c6000396000f3fe60806040526004361061004a5760003560e01c806328b65e041461004f5780632df335f91461008c5780632e1a7d4d146100bc57806371729643146100ec578063a1498ea614610117575b600080fd5b34801561005b57600080fd5b5061007660048036038101906100719190610838565b610147565b6040516100839190610ad0565b60405180910390f35b6100a660048036038101906100a19190610838565b610209565b6040516100b391906109f5565b60405180910390f35b6100d660048036038101906100d19190610838565b6103a1565b6040516100e391906109f5565b60405180910390f35b3480156100f857600080fd5b5061010161067b565b60405161010e9190610aeb565b60405180910390f35b610131600480360381019061012c9190610838565b610681565b60405161013e9190610aeb565b60405180910390f35b61014f6107dc565b6000600260008481526020019081526020016000206040518060a00160405290816000820160009054906101000a900473ffffffffffffffffffffffffffffffffffffffff1673ffffffffffffffffffffffffffffffffffffffff1673ffffffffffffffffffffffffffffffffffffffff1681526020016001820154815260200160028201548152602001600382015481526020016004820160009054906101000a900460ff161515151581525050905080915050919050565b600060026000541415610251576040517f08c379a000000000000000000000000000000000000000000000000000000000815260040161024890610a90565b60405180910390fd5b6002600081905550816001541161029d576040517f08c379a000000000000000000000000000000000000000000000000000000000815260040161029490610a70565b60405180910390fd5b600115156002600084815260200190815260200160002060040160009054906101000a900460ff16151514610307576040517f08c379a00000000000000000000000000000000000000000000000000000000081526004016102fe90610a10565b60405180910390fd5b6000349050600060026000858152602001908152602001600020600301549050600082826103359190610b85565b90508060026000878152602001908152602001600020600301819055507f33da4f9b82b3e18a281ca2cabbe2f076925692abb593b7ea3f850009e8ec977085838360405161038593929190610b3d565b60405180910390a1600193505050506001600081905550919050565b6000600260005414156103e9576040517f08c379a00000000000000000000000000000000000000000000000000000000081526004016103e090610a90565b60405180910390fd5b60026000819055508160015411610435576040517f08c379a000000000000000000000000000000000000000000000000000000000815260040161042c90610a70565b60405180910390fd5b6002600083815260200190815260200160002060000160009054906101000a900473ffffffffffffffffffffffffffffffffffffffff1673ffffffffffffffffffffffffffffffffffffffff163373ffffffffffffffffffffffffffffffffffffffff16146104d9576040517f08c379a00000000000000000000000000000000000000000000000000000000081526004016104d090610ab0565b60405180910390fd5b600115156002600084815260200190815260200160002060040160009054906101000a900460ff16151514610543576040517f08c379a000000000000000000000000000000000000000000000000000000000815260040161053a90610a50565b60405180910390fd5b600260008381526020019081526020016000206002015442101561059c576040517f08c379a000000000000000000000000000000000000000000000000000000000815260040161059390610a30565b60405180910390fd5b60006002600084815260200190815260200160002060030154905060006002600085815260200190815260200160002060000160009054906101000a900473ffffffffffffffffffffffffffffffffffffffff1690508073ffffffffffffffffffffffffffffffffffffffff166108fc839081150290604051600060405180830381858888f19350505050158015610638573d6000803e3d6000fd5b5060006002600086815260200190815260200160002060040160006101000a81548160ff0219169083151502179055506001925050506001600081905550919050565b60015481565b6000600260005414156106c9576040517f08c379a00000000000000000000000000000000000000000000000000000000081526004016106c090610a90565b60405180910390fd5b60026000819055506000600154905060006002600083815260200190815260200160002090504281600101819055508381600201819055506107096107d4565b8160000160006101000a81548173ffffffffffffffffffffffffffffffffffffffff021916908373ffffffffffffffffffffffffffffffffffffffff16021790555060018160040160006101000a81548160ff0219169083151502179055506001600081548092919061077b90610c35565b91905055507f3c41bf1c5db7f34ca6a5acd5389f67d47556d8d16cdcdfa0ef0202798155278e826107aa6107d4565b866040516107ba93929190610b06565b60405180910390a181925050506001600081905550919050565b600033905090565b6040518060a00160405280600073ffffffffffffffffffffffffffffffffffffffff1681526020016000815260200160008152602001600081526020016000151581525090565b60008135905061083281610def565b92915050565b60006020828403121561084a57600080fd5b600061085884828501610823565b91505092915050565b61086a81610bed565b82525050565b61087981610bdb565b82525050565b61088881610bff565b82525050565b61089781610bff565b82525050565b60006108aa601f83610b74565b91506108b582610cad565b602082019050919050565b60006108cd602883610b74565b91506108d882610cd6565b604082019050919050565b60006108f0600e83610b74565b91506108fb82610d25565b602082019050919050565b6000610913601183610b74565b915061091e82610d4e565b602082019050919050565b6000610936601f83610b74565b915061094182610d77565b602082019050919050565b6000610959602983610b74565b915061096482610da0565b604082019050919050565b60a0820160008201516109856000850182610861565b50602082015161099860208501826109d7565b5060408201516109ab60408501826109d7565b5060608201516109be60608501826109d7565b5060808201516109d1608085018261087f565b50505050565b6109e081610c2b565b82525050565b6109ef81610c2b565b82525050565b6000602082019050610a0a600083018461088e565b92915050565b60006020820190508181036000830152610a298161089d565b9050919050565b60006020820190508181036000830152610a49816108c0565b9050919050565b60006020820190508181036000830152610a69816108e3565b9050919050565b60006020820190508181036000830152610a8981610906565b9050919050565b60006020820190508181036000830152610aa981610929565b9050919050565b60006020820190508181036000830152610ac98161094c565b9050919050565b600060a082019050610ae5600083018461096f565b92915050565b6000602082019050610b0060008301846109e6565b92915050565b6000606082019050610b1b60008301866109e6565b610b286020830185610870565b610b3560408301846109e6565b949350505050565b6000606082019050610b5260008301866109e6565b610b5f60208301856109e6565b610b6c60408301846109e6565b949350505050565b600082825260208201905092915050565b6000610b9082610c2b565b9150610b9b83610c2b565b9250827fffffffffffffffffffffffffffffffffffffffffffffffffffffffffffffffff03821115610bd057610bcf610c7e565b5b828201905092915050565b6000610be682610c0b565b9050919050565b6000610bf882610c0b565b9050919050565b60008115159050919050565b600073ffffffffffffffffffffffffffffffffffffffff82169050919050565b6000819050919050565b6000610c4082610c2b565b91507fffffffffffffffffffffffffffffffffffffffffffffffffffffffffffffffff821415610c7357610c72610c7e565b5b600182019050919050565b7f4e487b7100000000000000000000000000000000000000000000000000000000600052601160045260246000fd5b7f63616e6e6f74206465706f73697420746f206120636c6f736564206b6f6c6f00600082015250565b7f63616e6e6f7420776974686472617720756e74696c206166746572206b6f6c6f60008201527f2065787069726573000000000000000000000000000000000000000000000000602082015250565b7f4b6f6c6f20697320636c6f736564000000000000000000000000000000000000600082015250565b7f6b6f6c6f4964206d757374206578697374000000000000000000000000000000600082015250565b7f5265656e7472616e637947756172643a207265656e7472616e742063616c6c00600082015250565b7f6f6e6c79206f776e6572206f66206b6f6c6f2063616e2063616c6c207468697360008201527f2066756e6374696f6e0000000000000000000000000000000000000000000000602082015250565b610df881610c2b565b8114610e0357600080fd5b5056fea26469706673582212200faf4b07b94474cb1a9735a25bbade459aefa7b8b209da5ecae098354a76f8bf64736f6c63430008040033",
  "linkReferences": {},
  "deployedLinkReferences": {}
}